:100000000C947B010C94A3010C94A3010C94A30108
:100010000C94A3010C94A3010C94A3010C94A301D0
:100020000C94A3010C947F0A0C94A3010C94A301DB
:100030000C94A3010C94A3010C94A3010C94A301B0
:100040000C947B110C94A3010C9467130C949913DA
:100050000C94A3010C94A3010C94A3010C94A30190
:100060000C94A3010C94A3010C94A3010C94A30180
:100070000C94A3010C94A3010C94A3010C94A30170
:100080000C94A3010C94A3010C94A3010C94A30160
:100090000C94A3010C94A3010C94A3010C94A30150
:1000A0000C94A3010C94A3010C94A3010C94A30140
:1000B0000C94A3014E414E494E495459494E46CDE8
:1000C000CCCC3D0AD7233C17B7D13877CC2B32950F
:1000D00095E6241FB14F0A000020410000C84200ED
:1000E000401C4620BCBE4CCA1B0E5AAEC59D747F38
:1000F0008182848587888A8B8D8F9092939596983C
:10010000999B9C9E9FA1A3A4A6A7A8AAABADAEB0A5
:10011000B1B3B4B6B7B8BABBBCBEBFC1C2C3C5C623
:10012000C7C8CACBCCCDCFD0D1D2D3D5D6D7D8D9CA
:10013000DADBDCDDDFE0E1E2E3E4E4E5E6E7E8E9A1
:10014000EAEBECECEDEEEFEFF0F1F2F2F3F4F4F5B4
:10015000F5F6F7F7F8F8F9F9F9FAFAFBFBFBFCFC0E
:10016000FCFDFDFDFDFEFEFEFEFEFEFEFEFEFEFFB4
:10017000FEFEFEFEFEFEFEFEFEFEFDFDFDFDFCFCA7
:10018000FCFBFBFBFAFAF9F9F9F8F8F7F7F6F5F5E5
:10019000F4F4F3F2F2F1F0EFEFEEEDECECEBEAE970
:1001A000E8E7E6E5E4E4E3E2E1E0DFDDDCDBDAD941
:1001B000D8D7D6D5D3D2D1D0CFCDCCCBCAC8C7C64D
:1001C000C5C3C2C1BFBEBCBBBAB8B7B6B4B3B1B089
:1001D000AEADABAAA8A7A6A4A3A19F9E9C9B9998ED
:1001E00096959392908F8D8B8A8887858482817F64
:1001F0007D7C7A7977767473716F6E6C6B696866E3
:10020000656362605F5D5B5A585756545351504E58
:100210004D4B4A484746444342403F3D3C3B3938BA
:100220003736343332312F2E2D2C2B2928272625F3
:10023000242322211F1E1D1C1B1A1A1918171615FC
:100240001413121211100F0F0E0D0C0C0B0A0A09C9
:10025000090807070606050505040403030302024F
:100260000201010101000000000000000000000088
:100270000000000000000000000001010101020276
:100280000203030304040505050606070708090918
:100290000A0A0B0C0C0D0E0F0F101112121314156D
:1002A000161718191A1A1B1C1D1E1F21222324257C
:1002B000262728292B2C2D2E2F3132333436373850
:1002C000393B3C3D3F404243444647484A4B4D4EF4
:1002D000505153545657585A5B5D5F606263656670
:1002E00068696B6C6E6F7173747677797A7C7D0058
:1002F000B204C50AC91311241FBECFEFD8E0DEBF78
:10030000CDBF11E0A0E0B1E0E0EFF6E302C0059060
:100310000D92A63DB107D9F726E0A6EDB1E001C0E8
:100320001D92A134B207E1F711E0CBE7D1E004C0A0
:100330002197FE010E94D316C837D107C9F70E9442
:100340004D140C94761B0C9400000F93CF93DF9305
:1003500000D0CDB7DEB760686A835E9801E09E0189
:100360002F5F3F4F41E0BE016E5F7F4F87E492E019
:100370000E94CA075E9A89810F900F90DF91CF91FA
:100380000F9108950F93CF93DF931F92CDB7DEB7F0
:10039000606C69835E98022F9A0141E0BE016F5F35
:1003A0007F4F87E492E00E94CA075E9A0F90DF9128
:1003B000CF910F910895CF93DF9300D0CDB7DEB7E3
:1003C00069834A835E9842E0BE016F5F7F4F87E496
:1003D00092E00E94EC075E9A0F900F90DF91CF9110
:1003E000089540E06DE20C94DB010F931F93CF93CF
:1003F000DF9300D000D000D0CDB7DEB78C0160E332
:100400000E94A50126E0AE014F5F5F4F62E3C80185
:100410000E94C2018A8190E0982F88272981822B2F
:10042000F801918380832C8130E0322F22278B8149
:10043000282B338322832E8130E0322F22278D8197
:10044000282B3583248381E026960FB6F894DEBFEF
:100450000FBECDBFDF91CF911F910F9108950F93E4
:100460001F93CF93DF931F92CDB7DEB78C0180E44B
:1004700089835D9841E0BE016F5F7F4F87E492E022
:100480000E94EC075D9A0E94D111F801648F758F6C
:10049000868F978F0F90DF91CF911F910F910895C5
:1004A0000F931F93CF93DF931F92CDB7DEB78C01CD
:1004B00080E589835D9841E0BE016F5F7F4F87E4EF
:1004C00092E00E94EC075D9A0E94D111F801648FBE
:1004D000758F868F978F0F90DF91CF911F910F911E
:1004E00008950F93CF93DF9300D000D0CDB7DEB740
:1004F0001C825D9803E09E012F5F3F4F41E0BE01EB
:100500006C5F7F4F87E492E00E94CA075D9A298161
:100510006A81862F90E0A0E0B0E0BA2FA92F982F33
:100520008827A22B2B81BC01CD01622B0F900F904D
:100530000F900F90DF91CF910F9108950F931F931C
:10054000CF93DF93EC010E94D1110C8D1D8D2E8D68
:100550003F8DDC01CB01801B910BA20BB30B8032D2
:100560009340A105B10510F480E020C0CE010E94A7
:10057000710268A379A38AA39BA3672B682B692BBD
:10058000A1F40E94D1110C8D1D8D2E8D3F8DDC01AB
:10059000CB01801B910BA20BB30B803D9740A105B3
:1005A000B10510F3CE010E942F0281E0DF91CF91BF
:1005B0001F910F9108950F931F93CF93DF93EC0139
:1005C0000E94500280E293E00E9432120E94D111F8
:1005D0000C8D1D8D2E8D3F8DDC01CB01801B910B71
:1005E000A20BB30B813D9740A105B10558F4CE0194
:1005F0000E9471026CA37DA38EA39FA3672B682B1F
:10060000692B21F3DF91CF911F910F9108950F93E3
:100610001F93CF93DF9300D0CDB7DEB785E08A83F9
:10062000289801E010E09E012F5F3F4F41E050E02D
:10063000BE016E5F7F4F88E492E00E94FB07289A1C
:1006400089810F900F90DF91CF911F910F910895A5
:10065000CF93DF931F92CDB7DEB786E089832898CA
:1006600041E050E0BE016F5F7F4F88E492E00E945E
:100670002008289A0F90DF91CF910895EF92FF9272
:100680000F931F93CF93DF9300D000D01F92CDB76D
:10069000DEB77901FE01319685E0DF011D928A9572
:1006A000E9F782E189837A836B835C834D832898A1
:1006B00045E050E0BF0188E492E00E942008A801D4
:1006C000B70188E492E00E942008289A0F900F90CA
:1006D0000F900F900F90DF91CF911F910F91FF908E
:1006E000EF900895CF92DF92EF92FF920F931F93B6
:1006F000CF93DF9300D0CDB7DEB76C019B017A01B9
:1007000069833A830E942803D60114968D919C91A7
:100710001597F701E80FF91F4D915D916D917C914F
:1007200029813A81E130F14070F4480F591F611D71
:10073000711D8701C6010E943E03F60184819581E7
:10074000E80EF91E16C04115FFEF5F07F3EF6F07C4
:10075000F1E07F0780F45F5F6F4F7F4FD6014D93CD
:100760005D936D937C9313978701C6010E943E03AE
:10077000F601F582E4820F900F90DF91CF911F91E7
:100780000F91FF90EF90DF90CF900895CF936091FD
:100790004F0270915002072E000C880B990B0E949B
:1007A000791526EE34E14CEC52E40E942916181615
:1007B0003CF16091510270915202072E000C880B9F
:1007C000990B0E94791526EE34E14CEC52E40E941C
:1007D00029161816ACF06091530270915402072E3E
:1007E000000C880B990B0E947915C1E026EE34E1CC
:1007F0004CEC52E40E94291618161CF0C0E001C00F
:10080000C1E08C2FCF9108950F931F93CF93DF9367
:10081000EC018885998581309105E1F01CF4892BE4
:1008200041F09BC082309105D1F1039709F46DC06E
:1008300094C0CE010E94C603882309F48EC00E9492
:10084000C511688379838A839B8381E090E09987CF
:10085000888783C0CE010E94C6038823E9F00E94E6
:10086000C511088119812A813B81DC01CB01801BE4
:10087000910BA20BB30B85369105A105B10508F4C8
:100880006CC082E090E0998788870E94C5116883D8
:1008900079838A839B8361C0198618865EC00E9413
:1008A000C511088119812A813B81DC01CB01801BA4
:1008B000910BA20BB30B813E9349A440B10508F400
:1008C0004CC083E090E0998788870E94C5116883B7
:1008D00079838A839B8321E030E041E050E068E83F
:1008E00073E188E292E00E947D0689E492E00E9432
:1008F000F1018FE492E00E948C078DE792E0DF9196
:10090000CF911F910F910C9402070E94C51108818D
:1009100019812A813B81DC01CB01801B910BA20B49
:10092000B30B813C9742A940B105B8F084E090E058
:100930009987888780E395E7A0E0B0E08C839D836A
:10094000AE83BF8302E010E020E030E040E050E002
:10095000BA0188E292E00E94B505DF91CF911F9124
:100960000F910895EEE1F2E088E893E1A0E0B0E0B5
:1009700084839583A683B7831186108608950F9389
:100980001F93CF93DF93CDB7DEB7A9970FB6F89437
:10099000DEBF0FBECDBF8C0166E175E00E94F81688
:1009A00061E075E0C80107960E94F81667EF74E0F1
:1009B000C80140960E94F8168091D2049091D30409
:1009C000A091D404B091D504F801828F938FA48FA5
:1009D000B58F8091D004868F0E94C51129EB2983A1
:1009E0009A838B837C836D8386E0E6E1F5E0DE010C
:1009F000169601900D928A95E1F78BE0EBEEF4E00C
:100A0000DE011D9601900D928A95E1F78CE0EEEDE6
:100A1000F4E0DE01589601900D928A95E1F78091FD
:100A2000D2049091D304A091D404B091D5048CA3A6
:100A30009DA3AEA3BFA38091D10488A78091D004C9
:100A400089A749E250E0BE016F5F7F4F86ED91E0DC
:100A50000E947203A9960FB6F894DEBF0FBECDBFF9
:100A6000DF91CF911F910F91089568E272E086E1C6
:100A700095E00E94F8166FE272E081E095E00E9436
:100A8000F81668E372E087EF94E00E94F816E8E257
:100A9000F2E0828D938DA48DB58D8093D2049093D6
:100AA000D304A093D404B093D504868D8093D0044E
:100AB0000895EF92FF920F931F93CF93DF93E90175
:100AC00085EBF701808382E68183628343832483FD
:100AD000D583A901B801C70106960E94E616BE019A
:100AE0006A5F7F4FF701E60FF71F10822796CE0D42
:100AF000DF1D188242E090E080E0242F30E02617CE
:100B0000370740F4D701A20FB31F2C91820F980F23
:100B10004F5FF3CF80839883DF91CF911F910F9127
:100B2000FF90EF900895EF92FF920F931F93CF9352
:100B3000DF937B018B01C42FD0E0C8018E199F0980
:100B40008C179D0744F4F80161918F0182EA95E0CA
:100B50000E942013F2CF82EA95E0DF91CF911F919E
:100B60000F91FF90EF900C943614CF92DF92EF929A
:100B7000FF920F931F93CF93DF93CDB7DEB76897A4
:100B80000FB6F894DEBF0FBECDBF6C01498B5A8BF8
:100B90006B8B7C8B0D8B1E8B2F8B388FCE01019630
:100BA0007C018E010F5E1F4F28E030E041E462E0DF
:100BB000C6010E94590540E1B701C6010E94930594
:100BC00068960FB6F894DEBF0FBECDBFDF91CF9110
:100BD0001F910F91FF90EF90DF90CF900895CF92EB
:100BE000DF92EF92FF920F931F93CF93DF93CDB7D6
:100BF000DEB72A970FB6F894DEBF0FBECDBF8B01CC
:100C00000E94C5116B017C0185EB898382E68A8392
:100C100085E08B8381E08C8382E08D831E82F801E6
:100C200082818F838381888719861A86FE01339695
:100C30009E01275F3F4F91918985890F89879A850A
:100C4000890F8A87E217F307B1F710E01A3060F5D1
:100C50000E94C511DC01CB018C199D09AE09BF09A9
:100C6000893B9B40A105B10540F06BE171E082EA50
:100C700095E00E943A1480E018C082EA95E00E9454
:100C80009012892B19F382EA95E00E94AA12E1E002
:100C9000F0E0EC0FFD1FE10FF11D9081981711F0AE
:100CA00010E0D6CF1F5FD2CF81E02A960FB6F8941E
:100CB000DEBF0FBECDBFDF91CF911F910F91FF908F
:100CC000EF90DF90CF900895FF920F931F93CF93F3
:100CD000DF93EC018B01F42E4F2DB801CE010E9461
:100CE0009305B801CE010E94EF058823A9F3DF9197
:100CF000CF911F910F91FF900895CF92DF92EF92C5
:100D0000FF920F931F93CF93DF93CDB7DEB7649716
:100D10000FB6F894DEBF0FBECDBF6C016F87788B26
:100D2000498B5A8B2B8B3C8BCE0101967C018E011B
:100D3000015F1F4F26E030E048E066E0C6010E94F8
:100D400059054EE050E0B701C6010E946406649662
:100D50000FB6F894DEBF0FBECDBFDF91CF911F91CC
:100D60000F91FF90EF90DF90CF9008950F93CF9366
:100D7000DF9300D0CDB7DEB760686A835A9801E090
:100D80009E012F5F3F4F41E0BE016E5F7F4F87E4C2
:100D900092E00E94CA075A9A89810F900F90DF91C2
:100DA000CF910F9108950F93CF93DF931F92CDB7FB
:100DB000DEB7606C69835A98022F9A0141E0BE0148
:100DC0006F5F7F4F87E492E00E94CA075A9A0F90A4
:100DD000DF91CF910F910895CF93DF9300D0CDB7DE
:100DE000DEB769834A835A9842E0BE016F5F7F4F46
:100DF00087E492E00E94EC075A9A0F900F90DF91DF
:100E0000CF91089540E060E20C94EC060F931F939D
:100E1000CF93DF9300D000D000D0CDB7DEB78C01E8
:100E200067E20E94B60626E0AE014F5F5F4F68E2C0
:100E3000C8010E94D3068A8190E0982F88272981D3
:100E4000822BF801918380832C8130E0322F22277E
:100E50008B81282B338322832E8130E0322F22276F
:100E60008D81282B3583248381E026960FB6F89454
:100E7000DEBF0FBECDBFDF91CF911F910F910895BF
:100E80000F93CF93DF9300D0CDB7DEB760686A834E
:100E90005F9801E09E012F5F3F4F41E0BE016E5F12
:100EA0007F4F87E492E00E94CA075F9A89810F9082
:100EB0000F90DF91CF910F9108950F93CF93DF9310
:100EC0001F92CDB7DEB7606C69835F98022F9A01DD
:100ED00041E0BE016F5F7F4F87E492E00E94CA0746
:100EE0005F9A0F90DF91CF910F910895CF93DF9389
:100EF00000D0CDB7DEB769834A835F9842E0BE0178
:100F00006F5F7F4F87E492E00E94EC075F9A0F903B
:100F10000F90DF91CF91089540E06DE20C94760739
:100F20000F931F93CF93DF9300D000D000D0CDB7A5
:100F3000DEB78C0160E30E94400726E0AE014F5F00
:100F40005F4F62E3C8010E945D078A8190E0982F9D
:100F500088272981822BF801918380832C8130E0BE
:100F6000322F22278B81282B338322832E8130E05E
:100F7000322F22278D81282B3583248381E02696EA
:100F80000FB6F894DEBF0FBECDBFDF91CF911F919A
:100F90000F9108950F931F93FB0150E0CF01861B23
:100FA000970B8417950734F481918EBD0DB407FE1D
:100FB000FDCFF4CFF90110E0CF01821B930B801716
:100FC00091073CF41EBC0DB407FEFDCF8EB5819396
:100FD000F3CF1F910F910895FB0150E0CF01861BC5
:100FE000970B8417950734F481918EBD0DB407FEDD
:100FF000FDCFF4CF08950F931F93FB01CF01861B04
:10100000970B8417950744F481918093AE008091EB
:10101000AD0087FFFCCFF2CFF901CF01821B930B0C
:101020008017910754F41092AE008091AD0087FFB5
:10103000FCCF8091AE008193F0CF1F910F91089566
:10104000FB01CF01861B970B8417950744F4819110
:101050008093AE008091AD0087FFFCCFF2CF089562
:10106000CF92DF92EF92FF920F931F93CF93DF9374
:10107000CDB7DEB7A1970FB6F894DEBF0FBECDBFD8
:101080008C010E94C511F62EE72ED82EC92E0E9483
:10109000D11142ED4983CA82DB82EC82FD829E83BC
:1010A0008F8378876987F80184A595A526A52A8767
:1010B0009B878C8780A991A922A92D879E878F87DE
:1010C00080819181988B898B828193819A8B8B8B84
:1010D000848195819C8B8D8B868197819E8B8F8B54
:1010E00080859185988F898F828593859A8F8B8F44
:1010F00084A995A99C8F8D8F86A997A99E8F8F8F84
:1011000080AD91AD98A389A341E250E0BE016F5F2D
:101110007F4F86ED91E00E947203A1960FB6F8947E
:10112000DEBF0FBECDBFDF91CF911F910F91FF901A
:10113000EF90DF90CF900895CF92DF92EF92FF92E1
:101140000F931F93CF93DF93EC018C01045F1F4F2C
:10115000C8010E949E028823D9F30E94C511CCA029
:10116000DDA0EEA0FFA0DC01CB018C199D09AE092A
:10117000BF0985369105A105B10548F0C8010E9457
:10118000DB020E94C5116CA37DA38EA39FA3C8019F
:101190000E942F02CE010E94F5018823D9F38E010F
:1011A0000A5F1F4FC8010E9490078823D9F38E0160
:1011B0000C5C1F4FC8010E9406078823D9F3809159
:1011C000260290912702892BB9F40E94C5110CAD1B
:1011D0001DAD2EAD3FADDC01CB01801B910BA20BF1
:1011E000B30B0B97A105B105B0F086ED91E00E941D
:1011F000070380FDFACF06C086ED91E00E94070349
:1012000080FDFACFCE010E9430080E94C5116CAF5C
:101210007DAF8EAF9FAFDF91CF911F910F91FF9068
:10122000EF90DF90CF9008950F931F93CF93DF93AC
:10123000EC018AAD9BAD8230910519F12CF4009739
:1012400049F00197B1F056C08330910519F1049728
:1012500061F150C08E01045F1F4FC8010E949E02C1
:10126000882309F447C0C8010E942F0281E090E062
:1012700019C0CE010E94F5018823E1F182E090E0DF
:1012800011C0CE0106960E949007882399F183E051
:1012900090E008C0CE01C4960E940607882351F151
:1012A00084E090E09BAF8AAF25C0809126029091A8
:1012B0002702892B81F40E94C5110CAD1DAD2EAD06
:1012C0003FADDC01CB01801B910BA20BB30B0A9746
:1012D000A105B10568F086ED91E00E940703CE01FB
:1012E0000E9430080E94C5116CAF7DAF8EAF9FAFDA
:1012F0001BAE1AAEDF91CF911F910F91089570939D
:1013000094026093930290939202809391020895C5
:10131000CF9320912A0130912B0121503109F8946B
:1013200080919A0240919902789490E001968F7191
:10133000992750E084179507C9F04091BB0250915E
:10134000BC0280919302909194024817590711F4BE
:101350001092C102C091C102C11111C0F8949091C4
:101360009A02809199027894981711F0C1E0A3C075
:101370000E94360B80E091E00E94B2109CC0409128
:10138000C2025091C3028091C7029091C8024F3FA0
:10139000510509F090F54091BB025091BC02477095
:1013A0005527452B89F4E091BB02F091BC0253E034
:1013B000F695E7955A95E1F7409191025091920286
:1013C000E40FF51F408103C04091C402469540934D
:1013D000C4024091C40240FD10C04091BF02509130
:1013E000C002482759276091C5027091C60246275E
:1013F00057275093C0024093BF024091BF025091C3
:10140000C0026091BD027091BE02460F571F5093FB
:10141000BE024093BD02E091BD02F091BE02EE0F0C
:10142000EF2FEE1FFF0BF195E223F323E151FF4F66
:10143000E4914091BF025091C0024817590711F43E
:10144000E695E05CF894A0919A02B0E0A556BD4FF5
:10145000EC9380919A0290E001968F719927809386
:101460009A0278948091C2029091C30293959093CE
:10147000C3028093C2028091C2029091C302409144
:10148000C9025091CA028417950708F448CF809189
:10149000BB029091BC0201969093BC028093BB0268
:1014A0008091C2029091C302841B950B9093C3025A
:1014B0008093C20234CF8C2FCF9108958091C702C0
:1014C0009091C8029093C0028093BF021092BE0216
:1014D0001092BD021092BC021092BB021092C30285
:1014E0001092C20281E08093C1020E9488090E948A
:1014F000140B80E091E00E94B5100C942F0B1F920A
:101500000F920FB60F9211242F938F939F93AF9347
:10151000BF93EF93FF9390919A0280919902981351
:1015200018C08091C102882321F180919502909189
:101530009602A0919702B09198020196A11DB11D4B
:101540008093950290939602A0939702B09398028D
:1015500010C0E0919902F0E0E556FD4F20818091A6
:10156000990290E001968F719927809399022093B8
:10157000B400FF91EF91BF91AF919F918F912F9107
:101580000F900FBE0F901F901895CF92DF92EF92A1
:10159000FF92CF93DF93C0902601D0902701E09077
:1015A0002801F09029019E2D8D2D7C2D662720EBA2
:1015B00034E040E050E00E949B163093CA02209332
:1015C000C902C0912A01D0912B019E01A0EBB4E089
:1015D0000E94BD1627E0660F771F881F991F2A9566
:1015E000D1F7A70196010E949B163093C802209361
:1015F000C7029E01A8E9B8E00E94BD1637E0660F59
:10160000771F881F991F3A95D1F7A70196010E946D
:101610009B163093C6022093C502DF91CF91FF90B5
:10162000EF90DF90CF900895E6EBF0E080818F7926
:101630008083A0EBB0E08C9183608C93E1EBF0E0D1
:101640008081877F80838C918F7080628C93808172
:10165000887F816080838FE78093B4000895B89A73
:10166000E0E7F0E080818160808308958FE78093D8
:10167000B400E0E7F0E080818E7F80830895DF9200
:10168000EF92FF920F931F93CF93DF93CDB7DEB707
:10169000A4970FB6F894DEBF0FBECDBF88E1E3E09C
:1016A000F1E0DE01119601900D928A95E1F763E079
:1016B00070E0CE0101960E94C40C8FE20E94720C71
:1016C00086E195E00E94B80C88E60E94720C81E0E9
:1016D00095E00E94B80C8FE20E94720C87EF94E0B4
:1016E0000E94B80C83E50E94720C20E030E040E0DC
:1016F0005FE36091DA047091DB048091DC049091E7
:10170000DD040E945E140E9441157F936F938CE26A
:10171000E82E81E0F82EFF92EF921F9294E0D92EEE
:10172000DF928E01075E1F4F1F930F930E940E17CB
:10173000C8010E94B80C8FE20E94720C20E030E0D9
:1017400040E05FE36091D6047091D7048091D804A3
:101750009091D9040E945E140E9441157F936F936B
:10176000FF92EF921F92DF921F930F930E940E172A
:10177000C8010E94B80C81E391E00E94B80C2FEBE5
:101780003EE04CE95EE36091D2047091D304809115
:10179000D4049091D5040E94CF1420E030E040E0C2
:1017A0005FE30E945E140E9441159F938F937F9385
:1017B0006F9385E391E09F938F931F9287E08F93C0
:1017C0001F930F930E940E17C8010E94B80C80E26D
:1017D0000E94720C0E943C0D0E944B0D0FB6F894B3
:1017E000DEBF0FBECDBFA4960FB6F894DEBF0FBE0E
:1017F000CDBFDF91CF911F910F91FF90EF90DF90C0
:1018000008950F931F93CF93DF934091CE0450918F
:10181000CF042091CB023091CC029091CD0469E0AD
:10182000A1E0B0E0615009F44EC0782F7170869548
:10183000FA01E727AF0156954795E0FF04C008E09D
:10184000402704E8502771111EC0211510E131070F
:10185000D0F5F90193E0F695E7959A95E1F7E35312
:10186000FD4FE901C770DD278D0102C0000F111F78
:10187000CA95E2F7902F90957081972390832F5F00
:101880003F4F90E0CFCF211570E13707E0F4F90129
:1018900073E0F695E7957A95E1F7E353FD4FE9019B
:1018A000C770DD278D0102C0000F111FCA95E2F736
:1018B000E8017081C72BC0832F5F3F4F9F5F95303A
:1018C00008F4B0CFC2CF5093CF044093CE043093EE
:1018D000CC022093CB029093CD04DF91CF911F9146
:1018E0000F9108950C94010C1F93CF93DF93809177
:1018F000CB029091CC0220E030E0AEE7B0E061E0B6
:1019000070E0811510E1910758F5FC0143E0F69570
:10191000E7954A95E1F7EC01C770DD27AD01022E8E
:1019200002C0559547950A94E2F7E353FD4F40FFF7
:1019300008C0AB0101C0440FCA95EAF75081452B9E
:1019400008C0AB0101C0440FCA95EAF74095508129
:10195000452340832F5F3F4F01962830310589F69C
:101960009093CC028093CB02DF91CF911F91089589
:10197000CF93DF93EC018991882319F00E94010C29
:10198000FACFDF91CF9108956F927F928F929F92BD
:10199000AF92BF92CF92DF92EF92FF920F931F937D
:1019A000CF93DF9300D0CDB7DEB77B011092CC028E
:1019B0001092CB021092CD042FEF3FEF3093CF0463
:1019C0002093CE040DE210E089839A830E94740C68
:1019D0000150110989819A8101151105A9F73C016E
:1019E00000E010E0670181E0C81AD1080E151F055C
:1019F0006CF55301450186189708F50181915F0147
:101A0000882321F0880F0E94010CF4CF86E088160D
:101A1000910439F080E40E94010CFFEF8F1A9F0AB5
:101A2000F5CFF30187810C151D0531F490E0C096C8
:101A3000880F991F816002C0805D880F0E94010C91
:101A40000F5F1F4FF8E06F0E711CD0CF83E00E9434
:101A5000010C80EF0F900F90DF91CF911F910F91AC
:101A6000FF90EF90DF90CF90BF90AF909F908F90BE
:101A70007F906F900C94010CCF938091CE04C09115
:101A8000CF0480950E94010C8C2F80950E94010C40
:101A9000CF910C94740C6091CB027091CC028DECC0
:101AA00092E00E947F090C945E0AFC01208123359C
:101AB00089F440915B0550915C0560915D057091E2
:101AC0005E05705840935B0550935C0560935D051F
:101AD00070935E052093550510925605FC01808198
:101AE00080934205109243050895FC01208127351B
:101AF00089F44091570550915805609159057091AE
:101B00005A057058409357055093580560935905EE
:101B100070935A0520934C0510924D05FC0180816D
:101B2000809336051092370508956DE371E00E94A9
:101B3000EF16892B21F481E08093780508951092A7
:101B400078050895CF93DF93EC0123966BE371E062
:101B5000CE010E94EF16892B19F481E090E009C0B4
:101B60006FE371E0CE010E94EF16892B39F482E019
:101B700090E09093900580938F0504C0109290059B
:101B800010928F05DF91CF9108950E94D91660932E
:101B90002705709328058093290590932A050895B9
:101BA0000E94D91660932305709324058093250520
:101BB0009093260508950E94D91660931F0570938F
:101BC0002005809321059093220508950E94D9163F
:101BD0000E94481560931E0508950E94D9160E9420
:101BE000481560931D050895CF92DF92EF92FF9202
:101BF0000F931F93CF93DF9300D000D0CDB7DEB704
:101C00008C01FC0101900020E9F73197E81BF90BEA
:101C1000359730F1FC018081898381818A838281BB
:101C20008B831C82CE0101960E94D9166B017C0128
:101C3000C80103960E94D91620E030E040E752E444
:101C40000E94CF149B01AC01C701B6010E945E1433
:101C500060935705709358058093590590935A05E2
:101C600048E050E0B80184E495E00E94FF1610922D
:101C70004C054BE050E0B8018BE295E00E94FF1666
:101C8000109236050F900F900F900F90DF91CF912B
:101C90001F910F91FF90EF90DF90CF900895CF921A
:101CA000DF92EF92FF920F931F93CF93DF9300D0B9
:101CB0001F92CDB7DEB78C01FC0101900020E9F73F
:101CC0003197E81BF90B349720F1FC01808189835F
:101CD00081818A831B82CE0101960E94D9166B01F5
:101CE0007C01C80102960E94D91620E030E040E74E
:101CF00052E40E94CF149B01AC01C701B6010E94BF
:101D00005E1460935B0570935C0580935D05909312
:101D10005E0547E050E0B8018EE495E00E94FF16B2
:101D2000109255054AE050E0B80188E395E00E9422
:101D3000FF16109242050F900F900F90DF91CF91F8
:101D40001F910F91FF90EF90DF90CF900895CF9269
:101D5000DF92EF92FF920F931F9346E050E0BC0199
:101D600083E695E00E94FF16E3E6F5E01682208107
:101D7000022E000C330B205331094AE0429FB00180
:101D8000439F700D11248181082E000C990BC09780
:101D9000860F971F5CE3589FD001599FB00D112407
:101DA0002281022E000C330B20533109429FB001D7
:101DB000439F700D11248381082E000C990BC0974E
:101DC000860F971F589F6001599FD00C11248601E0
:101DD000DD0C220B330B8481082E000C990BC0976D
:101DE000489F6001499FD00C11248581082E000C6A
:101DF000990BC097C80ED91E0D2C000CEE08FF08D9
:101E0000C00ED11EE21EF31E2CE330E00E94CC1661
:101E1000C60ED71EE81EF91EC0925F05D09260055F
:101E2000E0926105F09262051F910F91FF90EF9093
:101E3000DF90CF9008959FEB980F963010F4875362
:101E400008959FE9980F963010F4875508958053B0
:101E50008A3008F080E0089510928E0584E2809325
:101E6000020110928D0510927A0510927905109258
:101E70007C0510927B051092900510928F050895B5
:101E80000F931F93CF93DF931F92CDB7DEB78D30A3
:101E900009F440C11CF48A3041F017C18A3209F4B8
:101EA000C1C08C3209F4C6C010C180917B059091ED
:101EB0007C05892B11F480E0B0C0909102018091E3
:101EC0008D059813F8CF00918F0510919005013082
:101ED000110541F00230110559F463E675E08AE618
:101EE00095E004C063E675E081E795E00E94F8168E
:101EF000012B09F36AE675E081E795E00E94EF1691
:101F0000892BC9F6809178058823A9F263E675E0EC
:101F100086E195E00E94F81680915F05909160053A
:101F2000A0916105B091620580931205909313050D
:101F3000A0931405B093150580915B0590915C0505
:101F4000A0915D05B0915E0580930E0590930F05FD
:101F5000A0931005B09311058091570590915805F5
:101F6000A0915905B0915A0580930A0590930B05ED
:101F7000A0930C05B0930D056EE475E081E095E04B
:101F80000E94F81664E475E087EF94E00E94F8166A
:101F900068E375E08BEE94E00E94F8166BE275E062
:101FA0008EED94E00E94F816809127059091280507
:101FB000A0912905B0912A058093DA049093DB045F
:101FC000A093DC04B093DD04809123059091240557
:101FD000A0912505B09126058093D6049093D7044F
:101FE000A093D804B093D90480911F059091200547
:101FF000A0912105B09122058093D2049093D3043F
:10200000A093D404B093D50480911E058093D1048D
:1020100080911D058093D00481E089830E942C0F5C
:10202000898179C091E090938E0590910201982763
:1020300090930201E0917905F0917A05E358FA4F07
:1020400010829091020189278093020120918F05CF
:102050003091900580917B0590917C052130310570
:1020600069F02230310599F0232B09F5181619066D
:10207000F4F08DE795E00E94A20D19C08F30910514
:10208000B4F4880F991FFC01E257FE4F08C08C3052
:1020900091056CF4880F991FFC01EA58FE4F0190DE
:1020A000F081E02D309719F08DE795E0099580914A
:1020B0007B0590917C05019690937C0580937B0530
:1020C00010927A051092790525C090918E0599237A
:1020D00059F00E941B0F90918D0520E1929F800D79
:1020E000112480938D0516C02091790530917A05D1
:1020F0002F30310578F4F901E358FA4F80832F5FD0
:102100003F4F30937A0520937905909102018927FA
:102110008093020180E00F90DF91CF911F910F918A
:10212000089583B7817F83BF83B7816083BFE4E66F
:10213000F0E080818160808383B7816083BF889570
:1021400083B78E7F83BF83B78E7F83BF80811082EA
:10215000E5E6F0E08081827C80830895549A5C9863
:10216000539A08955C98729808955C9A729A69E1FE
:1021700070E080E090E00C94F6116A9A729A68EE32
:1021800073E080E090E00E94F611729868EC70E0D5
:1021900080E090E00E94F611F1CF0F931F93CF9350
:1021A000DF930E94C511009195051091960520912D
:1021B000970530919805DC01CB01801B910BA20B98
:1021C000B30B813D9740A105B10560F00E942C0F33
:1021D0000E94C511609395057093960580939705AD
:1021E00090939805C0E0D0E082EA95E00E949012BA
:1021F000892BF1F0CD2B49F482EA95E00E94AA12D6
:102200000E94400FC82FD0E0EFCF8091D0048823E8
:1022100029F088E292E00E94BF0404C088E292E0C4
:102220000E943505DF91CF911F910F910C942C0FD7
:10223000CD2B59F7DF91CF911F910F9108950F93F7
:102240001F93809126029091270204978CF40E949C
:10225000CD108091260290912702039724F489E4FF
:1022600092E00E949C088EE192E00E94040402C069
:102270000E9491100E94C511009191051091920544
:102280002091930530919405DC01CB01801B910BCB
:10229000A20BB30B00912202109123022091240281
:1022A0003091250280179107A207B30708F18091AA
:1022B000D0048823E9F0439A0E943F0B0E94C51185
:1022C0006093910570939205809393059093940584
:1022D0000E948809882359F0809126029091270254
:1022E0000397B4F789E492E00E941409F1CF439870
:1022F0001F910F9108951F920F920FB60F92112404
:102300002F933F938F939F93AF93BF9380919A05A1
:1023100090919B05A0919C05B0919D0530919905E8
:1023200026E0230F2D3720F40296A11DB11D05C014
:1023300029E8230F0396A11DB11D209399058093D1
:102340009A0590939B05A0939C05B0939D05809161
:102350009E0590919F05A091A005B091A1050196C1
:10236000A11DB11D80939E0590939F05A093A0058C
:10237000B093A105BF91AF919F918F913F912F9104
:102380000F900FBE0F901F9018952FB7F894609183
:102390009A0570919B0580919C0590919D052FBF9A
:1023A00008953FB7F89480919E0590919F05A09164
:1023B000A005B091A10526B5A89B05C02F3F19F037
:1023C0000196A11DB11D3FBFBA2FA92F982F8827B5
:1023D000820F911DA11DB11DBC01CD0143E0660F0F
:1023E000771F881F991F4A95D1F708958F929F9262
:1023F000AF92BF92CF92DF92EF92FF926B017C017E
:102400000E94D1114B015C01C114D104E104F1041B
:1024100001F10E945C140E94D111DC01CB018819EA
:102420009909AA09BB09883E9340A105B10560F34B
:1024300021E0C21AD108E108F10888EE880E83E095
:10244000981EA11CB11CC114D104E104F10419F7B8
:10245000DBCFFF90EF90DF90CF90BF90AF909F9039
:102460008F9008958330910528F0880F991F049765
:102470000197F1F70895789484B5826084BD84B59E
:10248000816084BD85B5826085BD85B5816085BD6F
:10249000EEE6F0E0808181608083E1E8F0E0108288
:1024A000808182608083808181608083E0E8F0E0C9
:1024B000808181608083E1EBF0E0808184608083B3
:1024C000E0EBF0E0808181608083E1E9F0E08081F1
:1024D00082608083808181608083E0E9F0E0808198
:1024E00081608083E1EAF0E0808182608083808186
:1024F00081608083E0EAF0E0808181608083EAE7A8
:10250000F0E080818460808380818260808380812C
:102510008E7F80838081806880831092C1000895BF
:10252000FC01918D228D892F90E0805C9F4F821B52
:1025300091098F7399270895FC01918D828D9817C9
:1025400031F0828DE80FF11D858D90E008958FEFB9
:102550009FEF0895FC01918D828D981761F0828D17
:10256000DF01A80FB11D5D968C91928D9F5F9F73C7
:10257000928F90E008958FEF9FEF08958FEB93E196
:10258000892B41F080E090E0892B21F00E94BF135D
:1025900081110DC080E090E0892B71F080E090E027
:1025A000892B51F00E940000811104C008950E94FF
:1025B0000000F0CF0C9400000895FC01848DDF0131
:1025C000A80FB11DA35ABF4F2C91848D90E00196A6
:1025D0008F739927848FA689B7892C93A089B18995
:1025E0008C9180648C93938D848D981306C002889F
:1025F000F389E02D80818F7D80830895CF93DF93D1
:10260000EC01888D8823C9F0EA89FB89808185FDEA
:1026100005C0A889B9898C9186FD0FC00FB607FC4B
:10262000F5CF808185FFF2CFA889B9898C9185FF8C
:10263000EDCFCE010E94DD12E7CFDF91CF9108955B
:10264000EF92FF920F931F93CF93DF93EC0181E002
:10265000888F9B8D8C8D981305C0E889F9898081BE
:1026600085FD24C0F62E0B8D10E00F5F1F4F0F73FA
:102670001127E02E8C8DE8120CC00FB607FCFACFA4
:10268000E889F989808185FFF5CFCE010E94DD12AE
:10269000F1CF8B8DFE01E80FF11DE35AFF4FF08261
:1026A0000B8FEA89FB898081806207C0EE89FF89F0
:1026B0006083E889F98980818064808381E090E08B
:1026C000DF91CF911F910F91FF90EF9008951F928E
:1026D0000F920FB60F9211242F938F939F93EF9326
:1026E000FF93E091B205F091B3058081E091B805C8
:1026F000F091B90582FD12C090818091BB058F5F7A
:102700008F732091BC05821751F0E091BB05F0E07A
:10271000EE55FA4F958F8093BB0501C08081FF91E4
:10272000EF919F918F912F910F900FBE0F901F905F
:1027300018951F920F920FB60F9211242F933F936B
:102740004F935F936F937F938F939F93AF93BF93B9
:10275000EF93FF9382EA95E00E94DD12FF91EF91E3
:10276000BF91AF919F918F917F916F915F914F91A9
:102770003F912F910F900FBE0F901F90189582EAF6
:1027800095E00E94901221E0892B09F420E0822F2D
:102790000895E2EAF5E01382128288EE93E0A0E069
:1027A000B0E084839583A683B7838AEB91E091831D
:1027B000808385EC90E09587848784EC90E0978710
:1027C000868780EC90E0918B808B81EC90E0938BFE
:1027D000828B82EC90E0958B848B86EC90E0978BDB
:1027E000868B118E128E138E148E0895CF92DF92E7
:1027F000EF92FF920F931F93CF93DF936C017A01B7
:102800008B01C0E0D0E0CE15DF0589F0D8016D91D5
:102810008D01D601ED91FC910190F081E02DC60172
:102820000995892B11F47E0102C02196ECCFC701D6
:10283000DF91CF911F910F91FF90EF90DF90CF909C
:1028400008956115710579F0FB0101900020E9F709
:102850003197AF01461B570BDC01ED91FC910280D3
:10286000F381E02D099480E090E0089566EC71E03A
:102870000C9421140F931F93CF93DF93EC010E94CC
:1028800021148C01CE010E943614800F911FDF911C
:10289000CF911F910F91089508950E943B120E94BD
:1028A0004C140E94BD10CEEBD2E10E941F11209764
:1028B000E1F30E94BE12F9CF08955058BB27AA2712
:1028C0000E9475140C94EF150E94E11538F00E94D7
:1028D000E81520F039F49F3F19F426F40C94DE1526
:1028E0000EF4E095E7FB0C94D815E92F0E94001632
:1028F00058F3BA17620773078407950720F079F435
:10290000A6F50C9422160EF4E0950B2EBA2FA02DEE
:102910000B01B90190010C01CA01A0011124FF278C
:10292000591B99F0593F50F4503E68F11A16F04087
:10293000A22F232F342F4427585FF3CF4695379586
:102940002795A795F0405395C9F77EF41F16BA0B4B
:10295000620B730B840BBAF09150A1F0FF0FBB1FF9
:10296000661F771F881FC2F70EC0BA0F621F731F42
:10297000841F48F4879577956795B795F7959E3F9F
:1029800008F0B0CF9395880F08F09927EE0F979530
:10299000879508950E94B41508F481E008950E9477
:1029A000E3140C94EF150E94E81558F00E94E1150D
:1029B00040F029F45F3F29F00C94D81551110C9484
:1029C00023160C94DE150E94001668F39923B1F3C8
:1029D000552391F3951B550BBB27AA276217730745
:1029E000840738F09F5F5F4F220F331F441FAA1FD9
:1029F000A9F335D00E2E3AF0E0E832D09150504095
:102A0000E695001CCAF72BD0FE2F29D0660F771F42
:102A1000881FBB1F261737074807AB07B0E809F028
:102A2000BB0B802DBF01FF2793585F4F3AF09E3FAD
:102A3000510578F00C94D8150C9423165F3FE4F3FD
:102A4000983ED4F3869577956795B795F7959F5FF0
:102A5000C9F7880F911D9695879597F90895E1E03C
:102A6000660F771F881FBB1F621773078407BA079B
:102A700020F0621B730B840BBA0BEE1F88F7E095F6
:102A800008950E9448156894B1110C942316089576
:102A90000E94081688F09F5798F0B92F9927B751D0
:102AA000B0F0E1F0660F771F881F991F1AF0BA95F2
:102AB000C9F714C0B13091F00E942216B1E0089518
:102AC0000C942216672F782F8827B85F39F0B93F0A
:102AD000CCF3869577956795B395D9F73EF49095A5
:102AE0008095709561957F4F8F4F9F4F0895E89423
:102AF00009C097FB3EF490958095709561957F4F46
:102B00008F4F9F4F9923A9F0F92F96E9BB279395F3
:102B1000F695879577956795B795F111F8CFFAF403
:102B2000BB0F11F460FF1BC06F5F7F4F8F4F9F4F34
:102B300016C0882311F096E911C0772321F09EE892
:102B4000872F762F05C0662371F096E8862F70E0F8
:102B500060E02AF09A95660F771F881FDAF7880FD2
:102B60009695879597F90895990F0008550FAA0B28
:102B7000E0E8FEEF16161706E807F907C0F0121690
:102B80001306E407F50798F0621B730B840B950B93
:102B900039F40A2661F0232B242B252B21F40895E8
:102BA0000A2609F4A140A6958FEF811D811D089585
:102BB00097F99F6780E870E060E008959FEF80ECF0
:102BC000089500240A941616170618060906089593
:102BD00000240A9412161306140605060895092EF9
:102BE0000394000C11F4882352F0BB0F40F4BF2B68
:102BF00011F460FF04C06F5F7F4F8F4F9F4F0895A8
:102C000057FD9058440F551F59F05F3F71F047959D
:102C1000880F97FB991F61F09F3F79F08795089582
:102C2000121613061406551FF2CF4695F1DF08C0A1
:102C3000161617061806991FF1CF869571056105BE
:102C400008940895E894BB2766277727CB0197F966
:102C500008950E94B41508F48FEF08950E9441165C
:102C60000C94EF150E94E11538F00E94E81520F051
:102C7000952311F00C94D8150C94DE1511240C94A6
:102C800023160E94001670F3959FC1F3950F50E034
:102C9000551F629FF001729FBB27F00DB11D639F0E
:102CA000AA27F00DB11DAA1F649F6627B00DA11DB4
:102CB000661F829F2227B00DA11D621F739FB00D5A
:102CC000A11D621F839FA00D611D221F749F3327CA
:102CD000A00D611D231F849F600D211D822F762F63
:102CE0006A2F11249F5750409AF0F1F088234AF040
:102CF000EE0FFF1FBB1F661F771F881F91505040AC
:102D0000A9F79E3F510580F00C94D8150C9423161A
:102D10005F3FE4F3983ED4F3869577956795B79532
:102D2000F795E7959F5FC1F7FE2B880F911D96954C
:102D3000879597F90895A1E21A2EAA1BBB1BFD01E6
:102D40000DC0AA1FBB1FEE1FFF1FA217B307E4078A
:102D5000F50720F0A21BB30BE40BF50B661F771FE2
:102D6000881F991F1A9469F76095709580959095C2
:102D70009B01AC01BD01CF010895A29FB001B39F9B
:102D8000C001A39F700D811D1124911DB29F700D74
:102D9000811D1124911D08950E94BD16B7FF08954D
:102DA000821B930B0895EE0FFF1F0590F491E02D09
:102DB0000994662777270C94101991110C946D1AB9
:102DC000803219F089508550C8F70895FB01DC0165
:102DD00002C001900D9241505040D8F70895FB0178
:102DE000DC018D91019080190110D9F3990B0895A0
:102DF000FB01DC0101900D920020E1F70895FB0139
:102E0000DC014150504048F001900D920020C9F77C
:102E100001C01D9241505040E0F70895AEE0B0E08F
:102E2000E4E1F7E10C944D1B0D891E898F89988D83
:102E300026E02C831A83098397FF02C080E090E884
:102E400001979E838D83AE01455E5F4F698D7A8DBC
:102E5000CE0101960E943E174D815E8157FD0AC04A
:102E60002F813885421753070CF49A01F801E20FBD
:102E7000F31F10822E96E4E00C94691BACE0B0E0E6
:102E8000E4E4F7E10C943F1B7C016B018A01FC0137
:102E900017821682838181FFBDC1CE0101964C014C
:102EA000F7019381F60193FD859193FF81916F0165
:102EB000882309F4ABC1853239F493FD859193FFE2
:102EC00081916F01853229F4B70190E00E949E1A2A
:102ED000E7CF512C312C20E02032A0F48B3269F066
:102EE00030F4803259F0833269F420612CC08D3285
:102EF00039F0803339F4216026C02260246023C079
:102F0000286021C027FD27C030ED380F3A3078F413
:102F100026FF06C0FAE05F9E300D1124532E13C029
:102F20008AE0389E300D1124332E20620CC08E3280
:102F300021F426FD6BC1206406C08C3611F4206894
:102F400002C0883641F4F60193FD859193FF81918B
:102F50006F018111C1CF982F9F7D9554933028F434
:102F60000C5F1F4FFFE3F9830DC0833631F08337C9
:102F700071F0833509F05BC022C0F801808189833C
:102F80000E5F1F4F44244394512C540115C0380147
:102F9000F2E06F0E711CF801A080B18026FF03C023
:102FA000652D70E002C06FEF7FEFC5012C870E9496
:102FB000931A2C0183012C852F77222E17C03801FC
:102FC000F2E06F0E711CF801A080B18026FF03C0F3
:102FD000652D70E002C06FEF7FEFC5012C870E9466
:102FE000881A2C012C852068222E830123FC1BC00B
:102FF000832D90E048165906B0F4B70180E290E0C6
:103000000E949E1A3A94F4CFF50127FC859127FE81
:1030100081915F01B70190E00E949E1A31103A94AD
:10302000F1E04F1A51084114510471F7E5C084369C
:1030300011F0893639F5F80127FF07C060817181E9
:10304000828193810C5F1F4F08C060817181072EC0
:10305000000C880B990B0E5F1F4F2F76722E97FF77
:1030600009C090958095709561957F4F8F4F9F4FC8
:103070002068722E2AE030E0A4010E94D61AA82E01
:10308000A81844C0853729F42F7EB22E2AE030E0FC
:1030900025C0F22FF97FBF2E8F36C1F018F4883586
:1030A00079F0B4C0803719F0883721F0AFC02F2FE6
:1030B0002061B22EB4FE0DC08B2D8460B82E09C0E5
:1030C00024FF0AC09F2F9660B92E06C028E030E08A
:1030D00005C020E130E002C020E132E0F801B7FE97
:1030E00007C060817181828193810C5F1F4F06C090
:1030F0006081718180E090E00E5F1F4FA4010E940B
:10310000D61AA82EA818FB2DFF777F2E76FE0BC0AF
:10311000372D3E7FA51450F474FE0AC072FC08C01F
:10312000372D3E7E05C0BA2C372D03C0BA2C01C006
:10313000B52C34FF0DC0FE01EA0DF11D80818033F6
:1031400011F4397E09C032FF06C0B394B39404C0B1
:10315000832F867809F0B39433FD13C030FF06C087
:103160005A2CB31418F4530C5B18B32CB31468F432
:10317000B70180E290E03C870E949E1AB3943C85A0
:10318000F5CFB31410F43B1801C0312C34FF12C03A
:10319000B70180E390E03C870E949E1A3C8532FF95
:1031A00017C031FD03C088E790E002C088E590E0D9
:1031B000B7010CC0832F867859F031FF02C08BE233
:1031C00001C080E237FD8DE2B70190E00E949E1AB7
:1031D000A51438F4B70180E390E00E949E1A5A9437
:1031E000F7CFAA94F401EA0DF11D8081B70190E0B8
:1031F0000E949E1AA110F5CF332009F451CEB701D9
:1032000080E290E00E949E1A3A94F6CFF701868100
:10321000978102C08FEF9FEF2C96E2E10C945B1B2D
:10322000A0E0B0E0E6E1F9E10C94431BEC017B0186
:103230006115710519F0DB018D939C938E010F5F71
:103240001F4F7880872D90E00E94DD16892B11F0AA
:10325000E801F4CFBDE27B1205C00F5F1F4F7980FC
:10326000C1E008C0EBE27E1204C08E010E5F1F4F6A
:103270007980C0E06801F1E0CF1AD10843E050E066
:103280006CEB70E0C6010E94701A892BF1F46801A2
:1032900022E0C20ED11C45E050E067EB70E0C601B1
:1032A0000E94701A892B21F4680187E0C80ED11C96
:1032B000E114F10419F0D701CD92DC92C111FFC0E5
:1032C00060E070E080E89FE703C143E050E064EB1A
:1032D00070E0C6010E94701A892B51F4E114F104C8
:1032E00009F4F2C00E5F1F4FF70111830083ECC099
:1032F000680160E070E0CB0100E010E0F601D0ED85
:10330000D70DDA3058F52C2F2260622E2C2F287022
:10331000C2FF05C0211128C00F5F1F4F25C0222307
:1033200011F001501109A5E0B0E09B01AC010E9431
:10333000341B4B015C01880C991CAA1CBB1CC501E9
:10334000B4016D0F711D811D911D6839A9E97A07BE
:103350008A07A9E19A0740F0C66005C0DE3F51F434
:10336000C3FD44C0C8606C2EBFEFCB1ADB0A70806F
:10337000C62DC4CF2D2F2F7D2531C1F540814D3273
:1033800011F4C06106C04B3221F0319621E030E0EB
:1033900006C03296D60111964C9122E030E0A0EDA5
:1033A000A40FAA3018F0E21BF30B20C040E050E05D
:1033B0004038BCE05B075CF49A01220F331F220FF8
:1033C000331F420F531F440F551F4A0F511D319693
:1033D000DF0111972C91A0EDA20FAA3048F3C4FF92
:1033E00003C0519541955109040F151FC1FF07C036
:1033F000E114F10421F03197D701ED93FC930E9481
:103400007715C370C33019F06B017C0106C06B01E6
:103410007C01F7FAF094F7F8F09420E030E0A9018D
:10342000C701B6010E94CA14882309F445C017FFDA
:1034300006C0119501951109C3EDD0E002C0CBEE95
:10344000D0E05E01B8E1AB1AB1084601BE2DAF2D48
:1034500090E2E92EF12C0E151F0584F0FE01259156
:10346000359145915491B4018B2F9A2F0E942E16BD
:103470004B01B82FA92F0E191F09EDCF2497F594F2
:10348000E794CA15DB0539F76401EB2EFA2E8E2D71
:10349000880F8F2D881F8F3F49F020E030E0A90171
:1034A000C701B6010E94CA14811106C082E290E0F1
:1034B0009093400680933F06C701B60109C060E0C3
:1034C00070E080E89FEF04C060E070E080EC9FE770
:1034D000CDB7DEB7EEE00C945F1B992788270895DF
:1034E000FB01DC014150504088F08D9181341CF08B
:1034F0008B350CF4805E659161341CF06B350CF4F7
:10350000605E861B611171F3990B0895881BFCCFD7
:10351000FC010590615070400110D8F7809590959E
:103520008E0F9F1F0895FC016150704001900110A3
:10353000D8F7809590958E0F9F1F08950F931F9336
:10354000CF93DF93FB01238121FD03C08FEF9FEF1A
:1035500028C022FF16C04681578124813581421739
:10356000530744F4A081B1819D012F5F3F4F318308
:1035700020838C93268137812F5F3F4F37832683AB
:1035800010C0EB01092F182F0084F185E02D09955B
:10359000892BE1F68E819F8101969F838E83812FF7
:1035A000902FDF91CF911F910F910895FA01AA27D3
:1035B000283051F1203181F1E8946F936E7F6E5F76
:1035C0007F4F8F4F9F4FAF4FB1E03ED0B4E03CD024
:1035D000670F781F891F9A1FA11D680F791F8A1F07
:1035E000911DA11D6A0F711D811D911DA11D20D06E
:1035F00009F468943F912AE0269F11243019305D28
:103600003193DEF6CF010895462F4770405D419318
:10361000B3E00FD0C9F7F6CF462F4F70405D4A3365
:1036200018F0495D31FD4052419302D0A9F7EACF2D
:10363000B4E0A6959795879577956795BA95C9F75C
:1036400000976105710508959B01AC010A2E06944F
:103650005795479537952795BA95C9F7620F731F08
:10366000841F951FA01D08950E94BD16A59F900D53
:10367000B49F900DA49F800D911D112408952F9249
:103680003F924F925F926F927F928F929F92AF92F2
:10369000BF92CF92DF92EF92FF920F931F93CF933F
:1036A000DF93CDB7DEB7CA1BDB0B0FB6F894DEBFD6
:1036B0000FBECDBF09942A88398848885F846E84FC
:1036C0007D848C849B84AA84B984C884DF80EE8046
:1036D000FD800C811B81AA81B981CE0FD11D0FB64F
:1036E000F894DEBF0FBECDBFED010895F894FFCF73
:1036F000B0012441505253000000004F4532444273
:103700004C000B57494445320000012028464149EE
:103710004C4544212900127A000000022530336410
:10372000002F413D002530366C6400474741005270
:103730004D430030303030303000303030302E30BB
:10374000304E0030303030302E30304500303030A8
:10375000302E30303030304E0030303030302E307F
:103760003030303045000000A70E950D4F0E550D3E
:10377000F40D750DD00DC50D000000000000000017
:10378000A70E0000000000000000ED0DE60D000097
:10379000DB0D000000000000000000000000000041
:1037A000AE10B510B210000000002013F6139012F6
:1037B000AA129C12FE120D0A006E616E00696E66FE
:0637C000006F76660000B8
:00000001FF
